{
  "_format": "hh-sol-artifact-1",
  "contractName": "PaymentEscrow",
  "sourceName": "contracts/PaymentEscrow.sol",
  "abi": [
    {
      "inputs": [
        {
          "internalType": "address",
          "name": "_invoiceRegistry",
          "type": "address"
        }
      ],
      "stateMutability": "nonpayable",
      "type": "constructor"
    },
    {
      "anonymous": false,
      "inputs": [
        {
          "indexed": true,
          "internalType": "uint256",
          "name": "invoiceId",
          "type": "uint256"
        },
        {
          "indexed": false,
          "internalType": "uint256",
          "name": "amount",
          "type": "uint256"
        }
      ],
      "name": "PaymentDeposited",
      "type": "event"
    },
    {
      "anonymous": false,
      "inputs": [
        {
          "indexed": true,
          "internalType": "uint256",
          "name": "invoiceId",
          "type": "uint256"
        },
        {
          "indexed": true,
          "internalType": "address",
          "name": "recipient",
          "type": "address"
        },
        {
          "indexed": false,
          "internalType": "uint256",
          "name": "amount",
          "type": "uint256"
        }
      ],
      "name": "PaymentReleased",
      "type": "event"
    },
    {
      "inputs": [],
      "name": "invoiceRegistry",
      "outputs": [
        {
          "internalType": "contract InvoiceRegistry",
          "name": "",
          "type": "address"
        }
      ],
      "stateMutability": "view",
      "type": "function"
    },
    {
      "inputs": [
        {
          "internalType": "uint256",
          "name": "_invoiceId",
          "type": "uint256"
        }
      ],
      "name": "payInvoice",
      "outputs": [],
      "stateMutability": "payable",
      "type": "function"
    }
  ],
  "bytecode": "0x608060405234801561001057600080fd5b50604051610dfa380380610dfa833981810160405281019061003291906100db565b806000806101000a81548173ffffffffffffffffffffffffffffffffffffffff021916908373ffffffffffffffffffffffffffffffffffffffff16021790555050610108565b600080fd5b600073ffffffffffffffffffffffffffffffffffffffff82169050919050565b60006100a88261007d565b9050919050565b6100b88161009d565b81146100c357600080fd5b50565b6000815190506100d5816100af565b92915050565b6000602082840312156100f1576100f0610078565b5b60006100ff848285016100c6565b91505092915050565b610ce3806101176000396000f3fe6080604052600436106100295760003560e01c8063ac60a6cd1461002e578063da6c70e41461004a575b600080fd5b61004860048036038101906100439190610592565b610075565b005b34801561005657600080fd5b5061005f6103ae565b60405161006c919061063e565b60405180910390f35b60008060009054906101000a900473ffffffffffffffffffffffffffffffffffffffff1673ffffffffffffffffffffffffffffffffffffffff16633a23cc0a836040518263ffffffff1660e01b81526004016100d19190610668565b600060405180830381865afa1580156100ee573d6000803e3d6000fd5b505050506040513d6000823e3d601f19601f820116820180604052508101906101179190610975565b90508060e001511561015e576040517f08c379a000000000000000000000000000000000000000000000000000000000815260040161015590610a1b565b60405180910390fd5b806101000151156101a4576040517f08c379a000000000000000000000000000000000000000000000000000000000815260040161019b90610a87565b60405180910390fd5b3373ffffffffffffffffffffffffffffffffffffffff16816040015173ffffffffffffffffffffffffffffffffffffffff1614806102125750600073ffffffffffffffffffffffffffffffffffffffff16816040015173ffffffffffffffffffffffffffffffffffffffff16145b610251576040517f08c379a000000000000000000000000000000000000000000000000000000000815260040161024890610af3565b60405180910390fd5b600073ffffffffffffffffffffffffffffffffffffffff16816080015173ffffffffffffffffffffffffffffffffffffffff16036102d457806060015134146102cf576040517f08c379a00000000000000000000000000000000000000000000000000000000081526004016102c690610b5f565b60405180910390fd5b6103a1565b60003414610317576040517f08c379a000000000000000000000000000000000000000000000000000000000815260040161030e90610bf1565b60405180910390fd5b806080015173ffffffffffffffffffffffffffffffffffffffff166323b872dd333084606001516040518463ffffffff1660e01b815260040161035c93929190610c20565b6020604051808303816000875af115801561037b573d6000803e3d6000fd5b505050506040513d601f19601f8201168201806040525081019061039f9190610c57565b505b6103aa816103d2565b5050565b60008054906101000a900473ffffffffffffffffffffffffffffffffffffffff1681565b600073ffffffffffffffffffffffffffffffffffffffff16816080015173ffffffffffffffffffffffffffffffffffffffff160361045e57806020015173ffffffffffffffffffffffffffffffffffffffff166108fc82606001519081150290604051600060405180830381858888f19350505050158015610458573d6000803e3d6000fd5b506104ea565b806080015173ffffffffffffffffffffffffffffffffffffffff1663a9059cbb826020015183606001516040518363ffffffff1660e01b81526004016104a5929190610c84565b6020604051808303816000875af11580156104c4573d6000803e3d6000fd5b505050506040513d601f19601f820116820180604052508101906104e89190610c57565b505b806020015173ffffffffffffffffffffffffffffffffffffffff1681600001517f21d71db5be59bb9fa133895586b7404307dd33fb93b16db09dc6f1d9d7d231b0836060015160405161053d9190610668565b60405180910390a350565b6000604051905090565b600080fd5b600080fd5b6000819050919050565b61056f8161055c565b811461057a57600080fd5b50565b60008135905061058c81610566565b92915050565b6000602082840312156105a8576105a7610552565b5b60006105b68482850161057d565b91505092915050565b600073ffffffffffffffffffffffffffffffffffffffff82169050919050565b6000819050919050565b60006106046105ff6105fa846105bf565b6105df565b6105bf565b9050919050565b6000610616826105e9565b9050919050565b60006106288261060b565b9050919050565b6106388161061d565b82525050565b6000602082019050610653600083018461062f565b92915050565b6106628161055c565b82525050565b600060208201905061067d6000830184610659565b92915050565b600080fd5b6000601f19601f8301169050919050565b7f4e487b7100000000000000000000000000000000000000000000000000000000600052604160045260246000fd5b6106d182610688565b810181811067ffffffffffffffff821117156106f0576106ef610699565b5b80604052505050565b6000610703610548565b905061070f82826106c8565b919050565b600080fd5b60008151905061072881610566565b92915050565b6000610739826105bf565b9050919050565b6107498161072e565b811461075457600080fd5b50565b60008151905061076681610740565b92915050565b600080fd5b600080fd5b600067ffffffffffffffff82111561079157610790610699565b5b61079a82610688565b9050602081019050919050565b60005b838110156107c55780820151818401526020810190506107aa565b60008484015250505050565b60006107e46107df84610776565b6106f9565b905082815260208101848484011115610800576107ff610771565b5b61080b8482856107a7565b509392505050565b600082601f8301126108285761082761076c565b5b81516108388482602086016107d1565b91505092915050565b60008115159050919050565b61085681610841565b811461086157600080fd5b50565b6000815190506108738161084d565b92915050565b600061012082840312156108905761088f610683565b5b61089b6101206106f9565b905060006108ab84828501610719565b60008301525060206108bf84828501610757565b60208301525060406108d384828501610757565b60408301525060606108e784828501610719565b60608301525060806108fb84828501610757565b60808301525060a061090f84828501610719565b60a08301525060c082015167ffffffffffffffff81111561093357610932610714565b5b61093f84828501610813565b60c08301525060e061095384828501610864565b60e08301525061010061096884828501610864565b6101008301525092915050565b60006020828403121561098b5761098a610552565b5b600082015167ffffffffffffffff8111156109a9576109a8610557565b5b6109b584828501610879565b91505092915050565b600082825260208201905092915050565b7f496e766f69636520616c72656164792070616964000000000000000000000000600082015250565b6000610a056014836109be565b9150610a10826109cf565b602082019050919050565b60006020820190508181036000830152610a34816109f8565b9050919050565b7f496e766f6963652063616e63656c6c6564000000000000000000000000000000600082015250565b6000610a716011836109be565b9150610a7c82610a3b565b602082019050919050565b60006020820190508181036000830152610aa081610a64565b9050919050565b7f4e6f74207468652064657369676e617465642070617965720000000000000000600082015250565b6000610add6018836109be565b9150610ae882610aa7565b602082019050919050565b60006020820190508181036000830152610b0c81610ad0565b9050919050565b7f496e636f72726563742045544820616d6f756e74000000000000000000000000600082015250565b6000610b496014836109be565b9150610b5482610b13565b602082019050919050565b60006020820190508181036000830152610b7881610b3c565b9050919050565b7f446f206e6f742073656e642045544820666f7220746f6b656e207061796d656e60008201527f7400000000000000000000000000000000000000000000000000000000000000602082015250565b6000610bdb6021836109be565b9150610be682610b7f565b604082019050919050565b60006020820190508181036000830152610c0a81610bce565b9050919050565b610c1a8161072e565b82525050565b6000606082019050610c356000830186610c11565b610c426020830185610c11565b610c4f6040830184610659565b949350505050565b600060208284031215610c6d57610c6c610552565b5b6000610c7b84828501610864565b91505092915050565b6000604082019050610c996000830185610c11565b610ca66020830184610659565b939250505056fea26469706673582212200008bd59229da4cce0e810357826500d86927d628e44d73fad6bc637c0a0902564736f6c63430008140033",
  "linkReferences": {},
  "deployedLinkReferences": {}
}