{"contracts/RevenueSplitter.sol":{"RevenueSplitter":{"abi":[{"anonymous":false,"inputs":[{"indexed":true,"internalType":"address","name":"from","type":"address"},{"indexed":false,"internalType":"address[]","name":"recipients","type":"address[]"},{"indexed":false,"internalType":"uint256[]","name":"amounts","type":"uint256[]"}],"name":"RevenueSplit","type":"event"},{"inputs":[{"internalType":"address","name":"_token","type":"address"},{"internalType":"address[]","name":"_recipients","type":"address[]"},{"internalType":"uint256[]","name":"_amounts","type":"uint256[]"}],"name":"splitPayment","outputs":[],"stateMutability":"payable","type":"function"}],"evm":{"bytecode":{"linkReferences":{},"object":"608060405234801561001057600080fd5b50610aad806100206000396000f3fe60806040526004361061001e5760003560e01c8063e15a0f7a14610023575b600080fd5b61003d60048036038101906100389190610520565b61003f565b005b818190508484905014610087576040517f08c379a000000000000000000000000000000000000000000000000000000000815260040161007e90610612565b60405180910390fd5b6000805b838390508110156100d0578383828181106100a9576100a8610632565b5b90506020020135826100bb919061069a565b915080806100c8906106ce565b91505061008b565b50600073ffffffffffffffffffffffffffffffffffffffff168673ffffffffffffffffffffffffffffffffffffffff16036101f557803414610147576040517f08c379a000000000000000000000000000000000000000000000000000000000815260040161013e90610762565b60405180910390fd5b60005b858590508110156101ef5785858281811061016857610167610632565b5b905060200201602081019061017d9190610782565b73ffffffffffffffffffffffffffffffffffffffff166108fc8585848181106101a9576101a8610632565b5b905060200201359081150290604051600060405180830381858888f193505050501580156101db573d6000803e3d6000fd5b5080806101e7906106ce565b91505061014a565b506103a1565b60003414610238576040517f08c379a000000000000000000000000000000000000000000000000000000000815260040161022f906107fb565b60405180910390fd5b60008690508073ffffffffffffffffffffffffffffffffffffffff166323b872dd3330856040518463ffffffff1660e01b815260040161027a93929190610839565b6020604051808303816000875af1158015610299573d6000803e3d6000fd5b505050506040513d601f19601f820116820180604052508101906102bd91906108a8565b5060005b8686905081101561039e578173ffffffffffffffffffffffffffffffffffffffff1663a9059cbb8888848181106102fb576102fa610632565b5b90506020020160208101906103109190610782565b87878581811061032357610322610632565b5b905060200201356040518363ffffffff1660e01b81526004016103479291906108d5565b6020604051808303816000875af1158015610366573d6000803e3d6000fd5b505050506040513d601f19601f8201168201806040525081019061038a91906108a8565b508080610396906106ce565b9150506102c1565b50505b3373ffffffffffffffffffffffffffffffffffffffff167f56d617c43c994b05eb1e6c196df523f636f44b20bfbfa9b97799d2323b6d538d868686866040516103ed9493929190610a3c565b60405180910390a2505050505050565b600080fd5b600080fd5b600073ffffffffffffffffffffffffffffffffffffffff82169050919050565b600061043282610407565b9050919050565b61044281610427565b811461044d57600080fd5b50565b60008135905061045f81610439565b92915050565b600080fd5b600080fd5b600080fd5b60008083601f84011261048a57610489610465565b5b8235905067ffffffffffffffff8111156104a7576104a661046a565b5b6020830191508360208202830111156104c3576104c261046f565b5b9250929050565b60008083601f8401126104e0576104df610465565b5b8235905067ffffffffffffffff8111156104fd576104fc61046a565b5b6020830191508360208202830111156105195761051861046f565b5b9250929050565b60008060008060006060868803121561053c5761053b6103fd565b5b600061054a88828901610450565b955050602086013567ffffffffffffffff81111561056b5761056a610402565b5b61057788828901610474565b9450945050604086013567ffffffffffffffff81111561059a57610599610402565b5b6105a6888289016104ca565b92509250509295509295909350565b600082825260208201905092915050565b7f4d69736d61746368656420617272617973000000000000000000000000000000600082015250565b60006105fc6011836105b5565b9150610607826105c6565b602082019050919050565b6000602082019050818103600083015261062b816105ef565b9050919050565b7f4e487b7100000000000000000000000000000000000000000000000000000000600052603260045260246000fd5b6000819050919050565b7f4e487b7100000000000000000000000000000000000000000000000000000000600052601160045260246000fd5b60006106a582610661565b91506106b083610661565b92508282019050808211156106c8576106c761066b565b5b92915050565b60006106d982610661565b91507fffffffffffffffffffffffffffffffffffffffffffffffffffffffffffffffff820361070b5761070a61066b565b5b600182019050919050565b7f496e636f72726563742045544820616d6f756e74000000000000000000000000600082015250565b600061074c6014836105b5565b915061075782610716565b602082019050919050565b6000602082019050818103600083015261077b8161073f565b9050919050565b600060208284031215610798576107976103fd565b5b60006107a684828501610450565b91505092915050565b7f446f206e6f742073656e64204554480000000000000000000000000000000000600082015250565b60006107e5600f836105b5565b91506107f0826107af565b602082019050919050565b60006020820190508181036000830152610814816107d8565b9050919050565b61082481610427565b82525050565b61083381610661565b82525050565b600060608201905061084e600083018661081b565b61085b602083018561081b565b610868604083018461082a565b949350505050565b60008115159050919050565b61088581610870565b811461089057600080fd5b50565b6000815190506108a28161087c565b92915050565b6000602082840312156108be576108bd6103fd565b5b60006108cc84828501610893565b91505092915050565b60006040820190506108ea600083018561081b565b6108f7602083018461082a565b9392505050565b600082825260208201905092915050565b6000819050919050565b61092281610427565b82525050565b60006109348383610919565b60208301905092915050565b600061094f6020840184610450565b905092915050565b6000602082019050919050565b600061097083856108fe565b935061097b8261090f565b8060005b858110156109b4576109918284610940565b61099b8882610928565b97506109a683610957565b92505060018101905061097f565b5085925050509392505050565b600082825260208201905092915050565b600080fd5b82818337505050565b60006109ec83856109c1565b93507f07ffffffffffffffffffffffffffffffffffffffffffffffffffffffffffffff831115610a1f57610a1e6109d2565b5b602083029250610a308385846109d7565b82840190509392505050565b60006040820190508181036000830152610a57818688610964565b90508181036020830152610a6c8184866109e0565b90509594505050505056fea2646970667358221220b47d6b19547367333f9ebb64d069c22444f5a42e1d6adad6afedc97ca31e149364736f6c63430008140033","opcodes":"PUSH1 0x80 PUSH1 0x40 MSTORE CALLVALUE DUP1 ISZERO PUSH2 0x10 JUMPI PUSH1 0x0 DUP1 REVERT JUMPDEST POP PUSH2 0xAAD DUP1 PUSH2 0x20 PUSH1 0x0 CODECOPY PUSH1 0x0 RETURN INVALID PUSH1 0x80 PUSH1 0x40 MSTORE PUSH1 0x4 CALLDATASIZE LT PUSH2 0x1E JUMPI PUSH1 0x0 CALLDATALOAD PUSH1 0xE0 SHR DUP1 PUSH4 0xE15A0F7A EQ PUSH2 0x23 JUMPI JUMPDEST PUSH1 0x0 DUP1 REVERT JUMPDEST PUSH2 0x3D PUSH1 0x4 DUP1 CALLDATASIZE SUB DUP2 ADD SWAP1 PUSH2 0x38 SWAP2 SWAP1 PUSH2 0x520 JUMP JUMPDEST PUSH2 0x3F JUMP JUMPDEST STOP JUMPDEST DUP2 DUP2 SWAP1 POP DUP5 DUP5 SWAP1 POP EQ PUSH2 0x87 JUMPI PUSH1 0x40 MLOAD PUSH32 0x8C379A000000000000000000000000000000000000000000000000000000000 DUP2 MSTORE PUSH1 0x4 ADD PUSH2 0x7E SWAP1 PUSH2 0x612 JUMP JUMPDEST PUSH1 0x40 MLOAD DUP1 SWAP2 SUB SWAP1 REVERT JUMPDEST PUSH1 0x0 DUP1 JUMPDEST DUP4 DUP4 SWAP1 POP DUP2 LT ISZERO PUSH2 0xD0 JUMPI DUP4 DUP4 DUP3 DUP2 DUP2 LT PUSH2 0xA9 JUMPI PUSH2 0xA8 PUSH2 0x632 JUMP JUMPDEST JUMPDEST SWAP1 POP PUSH1 0x20 MUL ADD CALLDATALOAD DUP3 PUSH2 0xBB SWAP2 SWAP1 PUSH2 0x69A JUMP JUMPDEST SWAP2 POP DUP1 DUP1 PUSH2 0xC8 SWAP1 PUSH2 0x6CE JUMP JUMPDEST SWAP2 POP POP PUSH2 0x8B JUMP JUMPDEST POP PUSH1 0x0 PUSH20 0xFFFFFFFFFFFFFFFFFFFFFFFFFFFFFFFFFFFFFFFF AND DUP7 PUSH20 0xFFFFFFFFFFFFFFFFFFFFFFFFFFFFFFFFFFFFFFFF AND SUB PUSH2 0x1F5 JUMPI DUP1 CALLVALUE EQ PUSH2 0x147 JUMPI PUSH1 0x40 MLOAD PUSH32 0x8C379A000000000000000000000000000000000000000000000000000000000 DUP2 MSTORE PUSH1 0x4 ADD PUSH2 0x13E SWAP1 PUSH2 0x762 JUMP JUMPDEST PUSH1 0x40 MLOAD DUP1 SWAP2 SUB SWAP1 REVERT JUMPDEST PUSH1 0x0 JUMPDEST DUP6 DUP6 SWAP1 POP DUP2 LT ISZERO PUSH2 0x1EF JUMPI DUP6 DUP6 DUP3 DUP2 DUP2 LT PUSH2 0x168 JUMPI PUSH2 0x167 PUSH2 0x632 JUMP JUMPDEST JUMPDEST SWAP1 POP PUSH1 0x20 MUL ADD PUSH1 0x20 DUP2 ADD SWAP1 PUSH2 0x17D SWAP2 SWAP1 PUSH2 0x782 JUMP JUMPDEST PUSH20 0xFFFFFFFFFFFFFFFFFFFFFFFFFFFFFFFFFFFFFFFF AND PUSH2 0x8FC DUP6 DUP6 DUP5 DUP2 DUP2 LT PUSH2 0x1A9 JUMPI PUSH2 0x1A8 PUSH2 0x632 JUMP JUMPDEST JUMPDEST SWAP1 POP PUSH1 0x20 MUL ADD CALLDATALOAD SWAP1 DUP2 ISZERO MUL SWAP1 PUSH1 0x40 MLOAD PUSH1 0x0 PUSH1 0x40 MLOAD DUP1 DUP4 SUB DUP2 DUP6 DUP9 DUP9 CALL SWAP4 POP POP POP POP ISZERO DUP1 ISZERO PUSH2 0x1DB JUMPI RETURNDATASIZE PUSH1 0x0 DUP1 RETURNDATACOPY RETURNDATASIZE PUSH1 0x0 REVERT JUMPDEST POP DUP1 DUP1 PUSH2 0x1E7 SWAP1 PUSH2 0x6CE JUMP JUMPDEST SWAP2 POP POP PUSH2 0x14A JUMP JUMPDEST POP PUSH2 0x3A1 JUMP JUMPDEST PUSH1 0x0 CALLVALUE EQ PUSH2 0x238 JUMPI PUSH1 0x40 MLOAD PUSH32 0x8C379A000000000000000000000000000000000000000000000000000000000 DUP2 MSTORE PUSH1 0x4 ADD PUSH2 0x22F SWAP1 PUSH2 0x7FB JUMP JUMPDEST PUSH1 0x40 MLOAD DUP1 SWAP2 SUB SWAP1 REVERT JUMPDEST PUSH1 0x0 DUP7 SWAP1 POP DUP1 PUSH20 0xFFFFFFFFFFFFFFFFFFFFFFFFFFFFFFFFFFFFFFFF AND PUSH4 0x23B872DD CALLER ADDRESS DUP6 PUSH1 0x40 MLOAD DUP5 PUSH4 0xFFFFFFFF AND PUSH1 0xE0 SHL DUP2 MSTORE PUSH1 0x4 ADD PUSH2 0x27A SWAP4 SWAP3 SWAP2 SWAP1 PUSH2 0x839 JUMP JUMPDEST PUSH1 0x20 PUSH1 0x40 MLOAD DUP1 DUP4 SUB DUP2 PUSH1 0x0 DUP8 GAS CALL ISZERO DUP1 ISZERO PUSH2 0x299 JUMPI RETURNDATASIZE PUSH1 0x0 DUP1 RETURNDATACOPY RETURNDATASIZE PUSH1 0x0 REVERT JUMPDEST POP POP POP POP PUSH1 0x40 MLOAD RETURNDATASIZE PUSH1 0x1F NOT PUSH1 0x1F DUP3 ADD AND DUP3 ADD DUP1 PUSH1 0x40 MSTORE POP DUP2 ADD SWAP1 PUSH2 0x2BD SWAP2 SWAP1 PUSH2 0x8A8 JUMP JUMPDEST POP PUSH1 0x0 JUMPDEST DUP7 DUP7 SWAP1 POP DUP2 LT ISZERO PUSH2 0x39E JUMPI DUP2 PUSH20 0xFFFFFFFFFFFFFFFFFFFFFFFFFFFFFFFFFFFFFFFF AND PUSH4 0xA9059CBB DUP9 DUP9 DUP5 DUP2 DUP2 LT PUSH2 0x2FB JUMPI PUSH2 0x2FA PUSH2 0x632 JUMP JUMPDEST JUMPDEST SWAP1 POP PUSH1 0x20 MUL ADD PUSH1 0x20 DUP2 ADD SWAP1 PUSH2 0x310 SWAP2 SWAP1 PUSH2 0x782 JUMP JUMPDEST DUP8 DUP8 DUP6 DUP2 DUP2 LT PUSH2 0x323 JUMPI PUSH2 0x322 PUSH2 0x632 JUMP JUMPDEST JUMPDEST SWAP1 POP PUSH1 0x20 MUL ADD CALLDATALOAD PUSH1 0x40 MLOAD DUP4 PUSH4 0xFFFFFFFF AND PUSH1 0xE0 SHL DUP2 MSTORE PUSH1 0x4 ADD PUSH2 0x347 SWAP3 SWAP2 SWAP1 PUSH2 0x8D5 JUMP JUMPDEST PUSH1 0x20 PUSH1 0x40 MLOAD DUP1 DUP4 SUB DUP2 PUSH1 0x0 DUP8 GAS CALL ISZERO DUP1 ISZERO PUSH2 0x366 JUMPI RETURNDATASIZE PUSH1 0x0 DUP1 RETURNDATACOPY RETURNDATASIZE PUSH1 0x0 REVERT JUMPDEST POP POP POP POP PUSH1 0x40 MLOAD RETURNDATASIZE PUSH1 0x1F NOT PUSH1 0x1F DUP3 ADD AND DUP3 ADD DUP1 PUSH1 0x40 MSTORE POP DUP2 ADD SWAP1 PUSH2 0x38A SWAP2 SWAP1 PUSH2 0x8A8 JUMP JUMPDEST POP DUP1 DUP1 PUSH2 0x396 SWAP1 PUSH2 0x6CE JUMP JUMPDEST SWAP2 POP POP PUSH2 0x2C1 JUMP JUMPDEST POP POP JUMPDEST CALLER PUSH20 0xFFFFFFFFFFFFFFFFFFFFFFFFFFFFFFFFFFFFFFFF AND PUSH32 0x56D617C43C994B05EB1E6C196DF523F636F44B20BFBFA9B97799D2323B6D538D DUP7 DUP7 DUP7 DUP7 PUSH1 0x40 MLOAD PUSH2 0x3ED SWAP5 SWAP4 SWAP3 SWAP2 SWAP1 PUSH2 0xA3C JUMP JUMPDEST PUSH1 0x40 MLOAD DUP1 SWAP2 SUB SWAP1 LOG2 POP POP POP POP POP POP JUMP JUMPDEST PUSH1 0x0 DUP1 REVERT JUMPDEST PUSH1 0x0 DUP1 REVERT JUMPDEST PUSH1 0x0 PUSH20 0xFFFFFFFFFFFFFFFFFFFFFFFFFFFFFFFFFFFFFFFF DUP3 AND SWAP1 POP SWAP2 SWAP1 POP JUMP JUMPDEST PUSH1 0x0 PUSH2 0x432 DUP3 PUSH2 0x407 JUMP JUMPDEST SWAP1 POP SWAP2 SWAP1 POP JUMP JUMPDEST PUSH2 0x442 DUP2 PUSH2 0x427 JUMP JUMPDEST DUP2 EQ PUSH2 0x44D JUMPI PUSH1 0x0 DUP1 REVERT JUMPDEST POP JUMP JUMPDEST PUSH1 0x0 DUP2 CALLDATALOAD SWAP1 POP PUSH2 0x45F DUP2 PUSH2 0x439 JUMP JUMPDEST SWAP3 SWAP2 POP POP JUMP JUMPDEST PUSH1 0x0 DUP1 REVERT JUMPDEST PUSH1 0x0 DUP1 REVERT JUMPDEST PUSH1 0x0 DUP1 REVERT JUMPDEST PUSH1 0x0 DUP1 DUP4 PUSH1 0x1F DUP5 ADD SLT PUSH2 0x48A JUMPI PUSH2 0x489 PUSH2 0x465 JUMP JUMPDEST JUMPDEST DUP3 CALLDATALOAD SWAP1 POP PUSH8 0xFFFFFFFFFFFFFFFF DUP2 GT ISZERO PUSH2 0x4A7 JUMPI PUSH2 0x4A6 PUSH2 0x46A JUMP JUMPDEST JUMPDEST PUSH1 0x20 DUP4 ADD SWAP2 POP DUP4 PUSH1 0x20 DUP3 MUL DUP4 ADD GT ISZERO PUSH2 0x4C3 JUMPI PUSH2 0x4C2 PUSH2 0x46F JUMP JUMPDEST JUMPDEST SWAP3 POP SWAP3 SWAP1 POP JUMP JUMPDEST PUSH1 0x0 DUP1 DUP4 PUSH1 0x1F DUP5 ADD SLT PUSH2 0x4E0 JUMPI PUSH2 0x4DF PUSH2 0x465 JUMP JUMPDEST JUMPDEST DUP3 CALLDATALOAD SWAP1 POP PUSH8 0xFFFFFFFFFFFFFFFF DUP2 GT ISZERO PUSH2 0x4FD JUMPI PUSH2 0x4FC PUSH2 0x46A JUMP JUMPDEST JUMPDEST PUSH1 0x20 DUP4 ADD SWAP2 POP DUP4 PUSH1 0x20 DUP3 MUL DUP4 ADD GT ISZERO PUSH2 0x519 JUMPI PUSH2 0x518 PUSH2 0x46F JUMP JUMPDEST JUMPDEST SWAP3 POP SWAP3 SWAP1 POP JUMP JUMPDEST PUSH1 0x0 DUP1 PUSH1 0x0 DUP1 PUSH1 0x0 PUSH1 0x60 DUP7 DUP9 SUB SLT ISZERO PUSH2 0x53C JUMPI PUSH2 0x53B PUSH2 0x3FD JUMP JUMPDEST JUMPDEST PUSH1 0x0 PUSH2 0x54A DUP9 DUP3 DUP10 ADD PUSH2 0x450 JUMP JUMPDEST SWAP6 POP POP PUSH1 0x20 DUP7 ADD CALLDATALOAD PUSH8 0xFFFFFFFFFFFFFFFF DUP2 GT ISZERO PUSH2 0x56B JUMPI PUSH2 0x56A PUSH2 0x402 JUMP JUMPDEST JUMPDEST PUSH2 0x577 DUP9 DUP3 DUP10 ADD PUSH2 0x474 JUMP JUMPDEST SWAP5 POP SWAP5 POP POP PUSH1 0x40 DUP7 ADD CALLDATALOAD PUSH8 0xFFFFFFFFFFFFFFFF DUP2 GT ISZERO PUSH2 0x59A JUMPI PUSH2 0x599 PUSH2 0x402 JUMP JUMPDEST JUMPDEST PUSH2 0x5A6 DUP9 DUP3 DUP10 ADD PUSH2 0x4CA JUMP JUMPDEST SWAP3 POP SWAP3 POP POP SWAP3 SWAP6 POP SWAP3 SWAP6 SWAP1 SWAP4 POP JUMP JUMPDEST PUSH1 0x0 DUP3 DUP3 MSTORE PUSH1 0x20 DUP3 ADD SWAP1 POP SWAP3 SWAP2 POP POP JUMP JUMPDEST PUSH32 0x4D69736D61746368656420617272617973000000000000000000000000000000 PUSH1 0x0 DUP3 ADD MSTORE POP JUMP JUMPDEST PUSH1 0x0 PUSH2 0x5FC PUSH1 0x11 DUP4 PUSH2 0x5B5 JUMP JUMPDEST SWAP2 POP PUSH2 0x607 DUP3 PUSH2 0x5C6 JUMP JUMPDEST PUSH1 0x20 DUP3 ADD SWAP1 POP SWAP2 SWAP1 POP JUMP JUMPDEST PUSH1 0x0 PUSH1 0x20 DUP3 ADD SWAP1 POP DUP2 DUP2 SUB PUSH1 0x0 DUP4 ADD MSTORE PUSH2 0x62B DUP2 PUSH2 0x5EF JUMP JUMPDEST SWAP1 POP SWAP2 SWAP1 POP JUMP JUMPDEST PUSH32 0x4E487B7100000000000000000000000000000000000000000000000000000000 PUSH1 0x0 MSTORE PUSH1 0x32 PUSH1 0x4 MSTORE PUSH1 0x24 PUSH1 0x0 REVERT JUMPDEST PUSH1 0x0 DUP2 SWAP1 POP SWAP2 SWAP1 POP JUMP JUMPDEST PUSH32 0x4E487B7100000000000000000000000000000000000000000000000000000000 PUSH1 0x0 MSTORE PUSH1 0x11 PUSH1 0x4 MSTORE PUSH1 0x24 PUSH1 0x0 REVERT JUMPDEST PUSH1 0x0 PUSH2 0x6A5 DUP3 PUSH2 0x661 JUMP JUMPDEST SWAP2 POP PUSH2 0x6B0 DUP4 PUSH2 0x661 JUMP JUMPDEST SWAP3 POP DUP3 DUP3 ADD SWAP1 POP DUP1 DUP3 GT ISZERO PUSH2 0x6C8 JUMPI PUSH2 0x6C7 PUSH2 0x66B JUMP JUMPDEST JUMPDEST SWAP3 SWAP2 POP POP JUMP JUMPDEST PUSH1 0x0 PUSH2 0x6D9 DUP3 PUSH2 0x661 JUMP JUMPDEST SWAP2 POP PUSH32 0xFFFFFFFFFFFFFFFFFFFFFFFFFFFFFFFFFFFFFFFFFFFFFFFFFFFFFFFFFFFFFFFF DUP3 SUB PUSH2 0x70B JUMPI PUSH2 0x70A PUSH2 0x66B JUMP JUMPDEST JUMPDEST PUSH1 0x1 DUP3 ADD SWAP1 POP SWAP2 SWAP1 POP JUMP JUMPDEST PUSH32 0x496E636F72726563742045544820616D6F756E74000000000000000000000000 PUSH1 0x0 DUP3 ADD MSTORE POP JUMP JUMPDEST PUSH1 0x0 PUSH2 0x74C PUSH1 0x14 DUP4 PUSH2 0x5B5 JUMP JUMPDEST SWAP2 POP PUSH2 0x757 DUP3 PUSH2 0x716 JUMP JUMPDEST PUSH1 0x20 DUP3 ADD SWAP1 POP SWAP2 SWAP1 POP JUMP JUMPDEST PUSH1 0x0 PUSH1 0x20 DUP3 ADD SWAP1 POP DUP2 DUP2 SUB PUSH1 0x0 DUP4 ADD MSTORE PUSH2 0x77B DUP2 PUSH2 0x73F JUMP JUMPDEST SWAP1 POP SWAP2 SWAP1 POP JUMP JUMPDEST PUSH1 0x0 PUSH1 0x20 DUP3 DUP5 SUB SLT ISZERO PUSH2 0x798 JUMPI PUSH2 0x797 PUSH2 0x3FD JUMP JUMPDEST JUMPDEST PUSH1 0x0 PUSH2 0x7A6 DUP5 DUP3 DUP6 ADD PUSH2 0x450 JUMP JUMPDEST SWAP2 POP POP SWAP3 SWAP2 POP POP JUMP JUMPDEST PUSH32 0x446F206E6F742073656E64204554480000000000000000000000000000000000 PUSH1 0x0 DUP3 ADD MSTORE POP JUMP JUMPDEST PUSH1 0x0 PUSH2 0x7E5 PUSH1 0xF DUP4 PUSH2 0x5B5 JUMP JUMPDEST SWAP2 POP PUSH2 0x7F0 DUP3 PUSH2 0x7AF JUMP JUMPDEST PUSH1 0x20 DUP3 ADD SWAP1 POP SWAP2 SWAP1 POP JUMP JUMPDEST PUSH1 0x0 PUSH1 0x20 DUP3 ADD SWAP1 POP DUP2 DUP2 SUB PUSH1 0x0 DUP4 ADD MSTORE PUSH2 0x814 DUP2 PUSH2 0x7D8 JUMP JUMPDEST SWAP1 POP SWAP2 SWAP1 POP JUMP JUMPDEST PUSH2 0x824 DUP2 PUSH2 0x427 JUMP JUMPDEST DUP3 MSTORE POP POP JUMP JUMPDEST PUSH2 0x833 DUP2 PUSH2 0x661 JUMP JUMPDEST DUP3 MSTORE POP POP JUMP JUMPDEST PUSH1 0x0 PUSH1 0x60 DUP3 ADD SWAP1 POP PUSH2 0x84E PUSH1 0x0 DUP4 ADD DUP7 PUSH2 0x81B JUMP JUMPDEST PUSH2 0x85B PUSH1 0x20 DUP4 ADD DUP6 PUSH2 0x81B JUMP JUMPDEST PUSH2 0x868 PUSH1 0x40 DUP4 ADD DUP5 PUSH2 0x82A JUMP JUMPDEST SWAP5 SWAP4 POP POP POP POP JUMP JUMPDEST PUSH1 0x0 DUP2 ISZERO ISZERO SWAP1 POP SWAP2 SWAP1 POP JUMP JUMPDEST PUSH2 0x885 DUP2 PUSH2 0x870 JUMP JUMPDEST DUP2 EQ PUSH2 0x890 JUMPI PUSH1 0x0 DUP1 REVERT JUMPDEST POP JUMP JUMPDEST PUSH1 0x0 DUP2 MLOAD SWAP1 POP PUSH2 0x8A2 DUP2 PUSH2 0x87C JUMP JUMPDEST SWAP3 SWAP2 POP POP JUMP JUMPDEST PUSH1 0x0 PUSH1 0x20 DUP3 DUP5 SUB SLT ISZERO PUSH2 0x8BE JUMPI PUSH2 0x8BD PUSH2 0x3FD JUMP JUMPDEST JUMPDEST PUSH1 0x0 PUSH2 0x8CC DUP5 DUP3 DUP6 ADD PUSH2 0x893 JUMP JUMPDEST SWAP2 POP POP SWAP3 SWAP2 POP POP JUMP JUMPDEST PUSH1 0x0 PUSH1 0x40 DUP3 ADD SWAP1 POP PUSH2 0x8EA PUSH1 0x0 DUP4 ADD DUP6 PUSH2 0x81B JUMP JUMPDEST PUSH2 0x8F7 PUSH1 0x20 DUP4 ADD DUP5 PUSH2 0x82A JUMP JUMPDEST SWAP4 SWAP3 POP POP POP JUMP JUMPDEST PUSH1 0x0 DUP3 DUP3 MSTORE PUSH1 0x20 DUP3 ADD SWAP1 POP SWAP3 SWAP2 POP POP JUMP JUMPDEST PUSH1 0x0 DUP2 SWAP1 POP SWAP2 SWAP1 POP JUMP JUMPDEST PUSH2 0x922 DUP2 PUSH2 0x427 JUMP JUMPDEST DUP3 MSTORE POP POP JUMP JUMPDEST PUSH1 0x0 PUSH2 0x934 DUP4 DUP4 PUSH2 0x919 JUMP JUMPDEST PUSH1 0x20 DUP4 ADD SWAP1 POP SWAP3 SWAP2 POP POP JUMP JUMPDEST PUSH1 0x0 PUSH2 0x94F PUSH1 0x20 DUP5 ADD DUP5 PUSH2 0x450 JUMP JUMPDEST SWAP1 POP SWAP3 SWAP2 POP POP JUMP JUMPDEST PUSH1 0x0 PUSH1 0x20 DUP3 ADD SWAP1 POP SWAP2 SWAP1 POP JUMP JUMPDEST PUSH1 0x0 PUSH2 0x970 DUP4 DUP6 PUSH2 0x8FE JUMP JUMPDEST SWAP4 POP PUSH2 0x97B DUP3 PUSH2 0x90F JUMP JUMPDEST DUP1 PUSH1 0x0 JUMPDEST DUP6 DUP2 LT ISZERO PUSH2 0x9B4 JUMPI PUSH2 0x991 DUP3 DUP5 PUSH2 0x940 JUMP JUMPDEST PUSH2 0x99B DUP9 DUP3 PUSH2 0x928 JUMP JUMPDEST SWAP8 POP PUSH2 0x9A6 DUP4 PUSH2 0x957 JUMP JUMPDEST SWAP3 POP POP PUSH1 0x1 DUP2 ADD SWAP1 POP PUSH2 0x97F JUMP JUMPDEST POP DUP6 SWAP3 POP POP POP SWAP4 SWAP3 POP POP POP JUMP JUMPDEST PUSH1 0x0 DUP3 DUP3 MSTORE PUSH1 0x20 DUP3 ADD SWAP1 POP SWAP3 SWAP2 POP POP JUMP JUMPDEST PUSH1 0x0 DUP1 REVERT JUMPDEST DUP3 DUP2 DUP4 CALLDATACOPY POP POP POP JUMP JUMPDEST PUSH1 0x0 PUSH2 0x9EC DUP4 DUP6 PUSH2 0x9C1 JUMP JUMPDEST SWAP4 POP PUSH32 0x7FFFFFFFFFFFFFFFFFFFFFFFFFFFFFFFFFFFFFFFFFFFFFFFFFFFFFFFFFFFFFF DUP4 GT ISZERO PUSH2 0xA1F JUMPI PUSH2 0xA1E PUSH2 0x9D2 JUMP JUMPDEST JUMPDEST PUSH1 0x20 DUP4 MUL SWAP3 POP PUSH2 0xA30 DUP4 DUP6 DUP5 PUSH2 0x9D7 JUMP JUMPDEST DUP3 DUP5 ADD SWAP1 POP SWAP4 SWAP3 POP POP POP JUMP JUMPDEST PUSH1 0x0 PUSH1 0x40 DUP3 ADD SWAP1 POP DUP2 DUP2 SUB PUSH1 0x0 DUP4 ADD MSTORE PUSH2 0xA57 DUP2 DUP7 DUP9 PUSH2 0x964 JUMP JUMPDEST SWAP1 POP DUP2 DUP2 SUB PUSH1 0x20 DUP4 ADD MSTORE PUSH2 0xA6C DUP2 DUP5 DUP7 PUSH2 0x9E0 JUMP JUMPDEST SWAP1 POP SWAP6 SWAP5 POP POP POP POP POP JUMP INVALID LOG2 PUSH5 0x6970667358 0x22 SLT KECCAK256 0xB4 PUSH30 0x6B19547367333F9EBB64D069C22444F5A42E1D6ADAD6AFEDC97CA31E1493 PUSH5 0x736F6C6343 STOP ADDMOD EQ STOP CALLER "},"methodIdentifiers":{"splitPayment(address,address[],uint256[])":"e15a0f7a"}}}}}