{
  "_format": "hh-sol-artifact-1",
  "contractName": "RevenueSplitter",
  "sourceName": "contracts/RevenueSplitter.sol",
  "abi": [
    {
      "anonymous": false,
      "inputs": [
        {
          "indexed": true,
          "internalType": "address",
          "name": "from",
          "type": "address"
        },
        {
          "indexed": false,
          "internalType": "address[]",
          "name": "recipients",
          "type": "address[]"
        },
        {
          "indexed": false,
          "internalType": "uint256[]",
          "name": "amounts",
          "type": "uint256[]"
        }
      ],
      "name": "RevenueSplit",
      "type": "event"
    },
    {
      "inputs": [
        {
          "internalType": "address",
          "name": "_token",
          "type": "address"
        },
        {
          "internalType": "address[]",
          "name": "_recipients",
          "type": "address[]"
        },
        {
          "internalType": "uint256[]",
          "name": "_amounts",
          "type": "uint256[]"
        }
      ],
      "name": "splitPayment",
      "outputs": [],
      "stateMutability": "payable",
      "type": "function"
    }
  ],
  "bytecode": "0x608060405234801561001057600080fd5b50610aad806100206000396000f3fe60806040526004361061001e5760003560e01c8063e15a0f7a14610023575b600080fd5b61003d60048036038101906100389190610520565b61003f565b005b818190508484905014610087576040517f08c379a000000000000000000000000000000000000000000000000000000000815260040161007e90610612565b60405180910390fd5b6000805b838390508110156100d0578383828181106100a9576100a8610632565b5b90506020020135826100bb919061069a565b915080806100c8906106ce565b91505061008b565b50600073ffffffffffffffffffffffffffffffffffffffff168673ffffffffffffffffffffffffffffffffffffffff16036101f557803414610147576040517f08c379a000000000000000000000000000000000000000000000000000000000815260040161013e90610762565b60405180910390fd5b60005b858590508110156101ef5785858281811061016857610167610632565b5b905060200201602081019061017d9190610782565b73ffffffffffffffffffffffffffffffffffffffff166108fc8585848181106101a9576101a8610632565b5b905060200201359081150290604051600060405180830381858888f193505050501580156101db573d6000803e3d6000fd5b5080806101e7906106ce565b91505061014a565b506103a1565b60003414610238576040517f08c379a000000000000000000000000000000000000000000000000000000000815260040161022f906107fb565b60405180910390fd5b60008690508073ffffffffffffffffffffffffffffffffffffffff166323b872dd3330856040518463ffffffff1660e01b815260040161027a93929190610839565b6020604051808303816000875af1158015610299573d6000803e3d6000fd5b505050506040513d601f19601f820116820180604052508101906102bd91906108a8565b5060005b8686905081101561039e578173ffffffffffffffffffffffffffffffffffffffff1663a9059cbb8888848181106102fb576102fa610632565b5b90506020020160208101906103109190610782565b87878581811061032357610322610632565b5b905060200201356040518363ffffffff1660e01b81526004016103479291906108d5565b6020604051808303816000875af1158015610366573d6000803e3d6000fd5b505050506040513d601f19601f8201168201806040525081019061038a91906108a8565b508080610396906106ce565b9150506102c1565b50505b3373ffffffffffffffffffffffffffffffffffffffff167f56d617c43c994b05eb1e6c196df523f636f44b20bfbfa9b97799d2323b6d538d868686866040516103ed9493929190610a3c565b60405180910390a2505050505050565b600080fd5b600080fd5b600073ffffffffffffffffffffffffffffffffffffffff82169050919050565b600061043282610407565b9050919050565b61044281610427565b811461044d57600080fd5b50565b60008135905061045f81610439565b92915050565b600080fd5b600080fd5b600080fd5b60008083601f84011261048a57610489610465565b5b8235905067ffffffffffffffff8111156104a7576104a661046a565b5b6020830191508360208202830111156104c3576104c261046f565b5b9250929050565b60008083601f8401126104e0576104df610465565b5b8235905067ffffffffffffffff8111156104fd576104fc61046a565b5b6020830191508360208202830111156105195761051861046f565b5b9250929050565b60008060008060006060868803121561053c5761053b6103fd565b5b600061054a88828901610450565b955050602086013567ffffffffffffffff81111561056b5761056a610402565b5b61057788828901610474565b9450945050604086013567ffffffffffffffff81111561059a57610599610402565b5b6105a6888289016104ca565b92509250509295509295909350565b600082825260208201905092915050565b7f4d69736d61746368656420617272617973000000000000000000000000000000600082015250565b60006105fc6011836105b5565b9150610607826105c6565b602082019050919050565b6000602082019050818103600083015261062b816105ef565b9050919050565b7f4e487b7100000000000000000000000000000000000000000000000000000000600052603260045260246000fd5b6000819050919050565b7f4e487b7100000000000000000000000000000000000000000000000000000000600052601160045260246000fd5b60006106a582610661565b91506106b083610661565b92508282019050808211156106c8576106c761066b565b5b92915050565b60006106d982610661565b91507fffffffffffffffffffffffffffffffffffffffffffffffffffffffffffffffff820361070b5761070a61066b565b5b600182019050919050565b7f496e636f72726563742045544820616d6f756e74000000000000000000000000600082015250565b600061074c6014836105b5565b915061075782610716565b602082019050919050565b6000602082019050818103600083015261077b8161073f565b9050919050565b600060208284031215610798576107976103fd565b5b60006107a684828501610450565b91505092915050565b7f446f206e6f742073656e64204554480000000000000000000000000000000000600082015250565b60006107e5600f836105b5565b91506107f0826107af565b602082019050919050565b60006020820190508181036000830152610814816107d8565b9050919050565b61082481610427565b82525050565b61083381610661565b82525050565b600060608201905061084e600083018661081b565b61085b602083018561081b565b610868604083018461082a565b949350505050565b60008115159050919050565b61088581610870565b811461089057600080fd5b50565b6000815190506108a28161087c565b92915050565b6000602082840312156108be576108bd6103fd565b5b60006108cc84828501610893565b91505092915050565b60006040820190506108ea600083018561081b565b6108f7602083018461082a565b9392505050565b600082825260208201905092915050565b6000819050919050565b61092281610427565b82525050565b60006109348383610919565b60208301905092915050565b600061094f6020840184610450565b905092915050565b6000602082019050919050565b600061097083856108fe565b935061097b8261090f565b8060005b858110156109b4576109918284610940565b61099b8882610928565b97506109a683610957565b92505060018101905061097f565b5085925050509392505050565b600082825260208201905092915050565b600080fd5b82818337505050565b60006109ec83856109c1565b93507f07ffffffffffffffffffffffffffffffffffffffffffffffffffffffffffffff831115610a1f57610a1e6109d2565b5b602083029250610a308385846109d7565b82840190509392505050565b60006040820190508181036000830152610a57818688610964565b90508181036020830152610a6c8184866109e0565b90509594505050505056fea2646970667358221220b47d6b19547367333f9ebb64d069c22444f5a42e1d6adad6afedc97ca31e149364736f6c63430008140033",
  "linkReferences": {},
  "deployedLinkReferences": {}
}