{
  "_format": "hh-sol-artifact-1",
  "contractName": "InvoiceRegistry",
  "sourceName": "contracts/InvoiceRegistry.sol",
  "abi": [
    {
      "anonymous": false,
      "inputs": [
        {
          "indexed": true,
          "internalType": "uint256",
          "name": "id",
          "type": "uint256"
        }
      ],
      "name": "InvoiceCancelled",
      "type": "event"
    },
    {
      "anonymous": false,
      "inputs": [
        {
          "indexed": true,
          "internalType": "uint256",
          "name": "id",
          "type": "uint256"
        },
        {
          "indexed": true,
          "internalType": "address",
          "name": "issuer",
          "type": "address"
        },
        {
          "indexed": true,
          "internalType": "address",
          "name": "payer",
          "type": "address"
        },
        {
          "indexed": false,
          "internalType": "uint256",
          "name": "amount",
          "type": "uint256"
        },
        {
          "indexed": false,
          "internalType": "address",
          "name": "token",
          "type": "address"
        },
        {
          "indexed": false,
          "internalType": "uint256",
          "name": "dueDate",
          "type": "uint256"
        }
      ],
      "name": "InvoiceCreated",
      "type": "event"
    },
    {
      "anonymous": false,
      "inputs": [
        {
          "indexed": true,
          "internalType": "uint256",
          "name": "id",
          "type": "uint256"
        },
        {
          "indexed": true,
          "internalType": "address",
          "name": "payer",
          "type": "address"
        }
      ],
      "name": "InvoicePaid",
      "type": "event"
    },
    {
      "inputs": [
        {
          "internalType": "uint256",
          "name": "_invoiceId",
          "type": "uint256"
        }
      ],
      "name": "cancelInvoice",
      "outputs": [],
      "stateMutability": "nonpayable",
      "type": "function"
    },
    {
      "inputs": [
        {
          "internalType": "address",
          "name": "_payer",
          "type": "address"
        },
        {
          "internalType": "uint256",
          "name": "_amount",
          "type": "uint256"
        },
        {
          "internalType": "address",
          "name": "_token",
          "type": "address"
        },
        {
          "internalType": "uint256",
          "name": "_dueDate",
          "type": "uint256"
        },
        {
          "internalType": "string",
          "name": "_metadataHash",
          "type": "string"
        }
      ],
      "name": "createInvoice",
      "outputs": [
        {
          "internalType": "uint256",
          "name": "",
          "type": "uint256"
        }
      ],
      "stateMutability": "nonpayable",
      "type": "function"
    },
    {
      "inputs": [
        {
          "internalType": "uint256",
          "name": "_invoiceId",
          "type": "uint256"
        }
      ],
      "name": "getInvoice",
      "outputs": [
        {
          "components": [
            {
              "internalType": "uint256",
              "name": "id",
              "type": "uint256"
            },
            {
              "internalType": "address",
              "name": "issuer",
              "type": "address"
            },
            {
              "internalType": "address",
              "name": "payer",
              "type": "address"
            },
            {
              "internalType": "uint256",
              "name": "amount",
              "type": "uint256"
            },
            {
              "internalType": "address",
              "name": "token",
              "type": "address"
            },
            {
              "internalType": "uint256",
              "name": "dueDate",
              "type": "uint256"
            },
            {
              "internalType": "string",
              "name": "metadataHash",
              "type": "string"
            },
            {
              "internalType": "bool",
              "name": "isPaid",
              "type": "bool"
            },
            {
              "internalType": "bool",
              "name": "isCancelled",
              "type": "bool"
            }
          ],
          "internalType": "struct InvoiceRegistry.Invoice",
          "name": "",
          "type": "tuple"
        }
      ],
      "stateMutability": "view",
      "type": "function"
    },
    {
      "inputs": [
        {
          "internalType": "uint256",
          "name": "",
          "type": "uint256"
        }
      ],
      "name": "invoices",
      "outputs": [
        {
          "internalType": "uint256",
          "name": "id",
          "type": "uint256"
        },
        {
          "internalType": "address",
          "name": "issuer",
          "type": "address"
        },
        {
          "internalType": "address",
          "name": "payer",
          "type": "address"
        },
        {
          "internalType": "uint256",
          "name": "amount",
          "type": "uint256"
        },
        {
          "internalType": "address",
          "name": "token",
          "type": "address"
        },
        {
          "internalType": "uint256",
          "name": "dueDate",
          "type": "uint256"
        },
        {
          "internalType": "string",
          "name": "metadataHash",
          "type": "string"
        },
        {
          "internalType": "bool",
          "name": "isPaid",
          "type": "bool"
        },
        {
          "internalType": "bool",
          "name": "isCancelled",
          "type": "bool"
        }
      ],
      "stateMutability": "view",
      "type": "function"
    },
    {
      "inputs": [
        {
          "internalType": "uint256",
          "name": "_invoiceId",
          "type": "uint256"
        }
      ],
      "name": "markAsPaid",
      "outputs": [],
      "stateMutability": "nonpayable",
      "type": "function"
    }
  ],
  "bytecode": "0x608060405234801561001057600080fd5b506117c2806100206000396000f3fe608060405234801561001057600080fd5b50600436106100575760003560e01c80633a23cc0a1461005c5780634e6d14051461008c5780637021cafe146100c4578063b8c8f0f3146100e0578063da9c273d14610110575b600080fd5b61007660048036038101906100719190610bb9565b61012c565b6040516100839190610da6565b60405180910390f35b6100a660048036038101906100a19190610bb9565b610342565b6040516100bb99989796959493929190610e3f565b60405180910390f35b6100de60048036038101906100d99190610bb9565b610492565b005b6100fa60048036038101906100f59190611034565b610668565b60405161010791906110cb565b60405180910390f35b61012a60048036038101906101259190610bb9565b610994565b005b610134610add565b6001600083815260200190815260200160002060405180610120016040529081600082015481526020016001820160009054906101000a900473ffffffffffffffffffffffffffffffffffffffff1673ffffffffffffffffffffffffffffffffffffffff1673ffffffffffffffffffffffffffffffffffffffff1681526020016002820160009054906101000a900473ffffffffffffffffffffffffffffffffffffffff1673ffffffffffffffffffffffffffffffffffffffff1673ffffffffffffffffffffffffffffffffffffffff168152602001600382015481526020016004820160009054906101000a900473ffffffffffffffffffffffffffffffffffffffff1673ffffffffffffffffffffffffffffffffffffffff1673ffffffffffffffffffffffffffffffffffffffff1681526020016005820154815260200160068201805461028390611115565b80601f01602080910402602001604051908101604052809291908181526020018280546102af90611115565b80156102fc5780601f106102d1576101008083540402835291602001916102fc565b820191906000526020600020905b8154815290600101906020018083116102df57829003601f168201915b505050505081526020016007820160009054906101000a900460ff161515151581526020016007820160019054906101000a900460ff1615151515815250509050919050565b60016020528060005260406000206000915090508060000154908060010160009054906101000a900473ffffffffffffffffffffffffffffffffffffffff16908060020160009054906101000a900473ffffffffffffffffffffffffffffffffffffffff16908060030154908060040160009054906101000a900473ffffffffffffffffffffffffffffffffffffffff16908060050154908060060180546103e990611115565b80601f016020809104026020016040519081016040528092919081815260200182805461041590611115565b80156104625780601f1061043757610100808354040283529160200191610462565b820191906000526020600020905b81548152906001019060200180831161044557829003601f168201915b5050505050908060070160009054906101000a900460ff16908060070160019054906101000a900460ff16905089565b60006001600083815260200190815260200160002090508060010160009054906101000a900473ffffffffffffffffffffffffffffffffffffffff1673ffffffffffffffffffffffffffffffffffffffff163373ffffffffffffffffffffffffffffffffffffffff161461053b576040517f08c379a0000000000000000000000000000000000000000000000000000000008152600401610532906111b8565b60405180910390fd5b8060070160009054906101000a900460ff161561058d576040517f08c379a000000000000000000000000000000000000000000000000000000000815260040161058490611224565b60405180910390fd5b8060070160019054906101000a900460ff16156105df576040517f08c379a00000000000000000000000000000000000000000000000000000000081526004016105d690611290565b60405180910390fd5b60018160070160006101000a81548160ff0219169083151502179055508060020160009054906101000a900473ffffffffffffffffffffffffffffffffffffffff1673ffffffffffffffffffffffffffffffffffffffff16827fb721ab7d2767e645e582c99d779d54bb3193114ad7d13e7bd7f7f2fd9b1875b460405160405180910390a35050565b60008085116106ac576040517f08c379a00000000000000000000000000000000000000000000000000000000081526004016106a3906112fc565b60405180910390fd5b600073ffffffffffffffffffffffffffffffffffffffff168673ffffffffffffffffffffffffffffffffffffffff160361071b576040517f08c379a000000000000000000000000000000000000000000000000000000000815260040161071290611368565b60405180910390fd5b600080600081548092919061072f906113b7565b9190505590506040518061012001604052808281526020013373ffffffffffffffffffffffffffffffffffffffff1681526020018873ffffffffffffffffffffffffffffffffffffffff1681526020018781526020018673ffffffffffffffffffffffffffffffffffffffff16815260200185815260200184815260200160001515815260200160001515815250600160008381526020019081526020016000206000820151816000015560208201518160010160006101000a81548173ffffffffffffffffffffffffffffffffffffffff021916908373ffffffffffffffffffffffffffffffffffffffff16021790555060408201518160020160006101000a81548173ffffffffffffffffffffffffffffffffffffffff021916908373ffffffffffffffffffffffffffffffffffffffff1602179055506060820151816003015560808201518160040160006101000a81548173ffffffffffffffffffffffffffffffffffffffff021916908373ffffffffffffffffffffffffffffffffffffffff16021790555060a0820151816005015560c08201518160060190816108d891906115ab565b5060e08201518160070160006101000a81548160ff0219169083151502179055506101008201518160070160016101000a81548160ff0219169083151502179055509050508673ffffffffffffffffffffffffffffffffffffffff163373ffffffffffffffffffffffffffffffffffffffff16827f8a9b53b4a4b147ee7dc676a3536afb102cc1c7302da6ccc53aaa079272bfcccd89898960405161097f9392919061167d565b60405180910390a48091505095945050505050565b60006001600083815260200190815260200160002090508060010160009054906101000a900473ffffffffffffffffffffffffffffffffffffffff1673ffffffffffffffffffffffffffffffffffffffff163373ffffffffffffffffffffffffffffffffffffffff1614610a3d576040517f08c379a0000000000000000000000000000000000000000000000000000000008152600401610a3490611700565b60405180910390fd5b8060070160009054906101000a900460ff1615610a8f576040517f08c379a0000000000000000000000000000000000000000000000000000000008152600401610a869061176c565b60405180910390fd5b60018160070160016101000a81548160ff021916908315150217905550817f2e9842040508f80e6420769a8673529eb3af5b952f53af83d9c9d3432da7804660405160405180910390a25050565b60405180610120016040528060008152602001600073ffffffffffffffffffffffffffffffffffffffff168152602001600073ffffffffffffffffffffffffffffffffffffffff16815260200160008152602001600073ffffffffffffffffffffffffffffffffffffffff16815260200160008152602001606081526020016000151581526020016000151581525090565b6000604051905090565b600080fd5b600080fd5b6000819050919050565b610b9681610b83565b8114610ba157600080fd5b50565b600081359050610bb381610b8d565b92915050565b600060208284031215610bcf57610bce610b79565b5b6000610bdd84828501610ba4565b91505092915050565b610bef81610b83565b82525050565b600073ffffffffffffffffffffffffffffffffffffffff82169050919050565b6000610c2082610bf5565b9050919050565b610c3081610c15565b82525050565b600081519050919050565b600082825260208201905092915050565b60005b83811015610c70578082015181840152602081019050610c55565b60008484015250505050565b6000601f19601f8301169050919050565b6000610c9882610c36565b610ca28185610c41565b9350610cb2818560208601610c52565b610cbb81610c7c565b840191505092915050565b60008115159050919050565b610cdb81610cc6565b82525050565b600061012083016000830151610cfa6000860182610be6565b506020830151610d0d6020860182610c27565b506040830151610d206040860182610c27565b506060830151610d336060860182610be6565b506080830151610d466080860182610c27565b5060a0830151610d5960a0860182610be6565b5060c083015184820360c0860152610d718282610c8d565b91505060e0830151610d8660e0860182610cd2565b50610100830151610d9b610100860182610cd2565b508091505092915050565b60006020820190508181036000830152610dc08184610ce1565b905092915050565b610dd181610b83565b82525050565b610de081610c15565b82525050565b600082825260208201905092915050565b6000610e0282610c36565b610e0c8185610de6565b9350610e1c818560208601610c52565b610e2581610c7c565b840191505092915050565b610e3981610cc6565b82525050565b600061012082019050610e55600083018c610dc8565b610e62602083018b610dd7565b610e6f604083018a610dd7565b610e7c6060830189610dc8565b610e896080830188610dd7565b610e9660a0830187610dc8565b81810360c0830152610ea88186610df7565b9050610eb760e0830185610e30565b610ec5610100830184610e30565b9a9950505050505050505050565b610edc81610c15565b8114610ee757600080fd5b50565b600081359050610ef981610ed3565b92915050565b600080fd5b600080fd5b7f4e487b7100000000000000000000000000000000000000000000000000000000600052604160045260246000fd5b610f4182610c7c565b810181811067ffffffffffffffff82111715610f6057610f5f610f09565b5b80604052505050565b6000610f73610b6f565b9050610f7f8282610f38565b919050565b600067ffffffffffffffff821115610f9f57610f9e610f09565b5b610fa882610c7c565b9050602081019050919050565b82818337600083830152505050565b6000610fd7610fd284610f84565b610f69565b905082815260208101848484011115610ff357610ff2610f04565b5b610ffe848285610fb5565b509392505050565b600082601f83011261101b5761101a610eff565b5b813561102b848260208601610fc4565b91505092915050565b600080600080600060a086880312156110505761104f610b79565b5b600061105e88828901610eea565b955050602061106f88828901610ba4565b945050604061108088828901610eea565b935050606061109188828901610ba4565b925050608086013567ffffffffffffffff8111156110b2576110b1610b7e565b5b6110be88828901611006565b9150509295509295909350565b60006020820190506110e06000830184610dc8565b92915050565b7f4e487b7100000000000000000000000000000000000000000000000000000000600052602260045260246000fd5b6000600282049050600182168061112d57607f821691505b6020821081036111405761113f6110e6565b5b50919050565b7f4f6e6c79206973737565722063616e206d61726b2061732070616964206d616e60008201527f75616c6c79000000000000000000000000000000000000000000000000000000602082015250565b60006111a2602583610de6565b91506111ad82611146565b604082019050919050565b600060208201905081810360008301526111d181611195565b9050919050565b7f416c726561647920706169640000000000000000000000000000000000000000600082015250565b600061120e600c83610de6565b9150611219826111d8565b602082019050919050565b6000602082019050818103600083015261123d81611201565b9050919050565b7f496e766f6963652063616e63656c6c6564000000000000000000000000000000600082015250565b600061127a601183610de6565b915061128582611244565b602082019050919050565b600060208201905081810360008301526112a98161126d565b9050919050565b7f416d6f756e74206d7573742062652067726561746572207468616e2030000000600082015250565b60006112e6601d83610de6565b91506112f1826112b0565b602082019050919050565b60006020820190508181036000830152611315816112d9565b9050919050565b7f496e76616c696420706179657220616464726573730000000000000000000000600082015250565b6000611352601583610de6565b915061135d8261131c565b602082019050919050565b6000602082019050818103600083015261138181611345565b9050919050565b7f4e487b7100000000000000000000000000000000000000000000000000000000600052601160045260246000fd5b60006113c282610b83565b91507fffffffffffffffffffffffffffffffffffffffffffffffffffffffffffffffff82036113f4576113f3611388565b5b600182019050919050565b60008190508160005260206000209050919050565b60006020601f8301049050919050565b600082821b905092915050565b6000600883026114617fffffffffffffffffffffffffffffffffffffffffffffffffffffffffffffffff82611424565b61146b8683611424565b95508019841693508086168417925050509392505050565b6000819050919050565b60006114a86114a361149e84610b83565b611483565b610b83565b9050919050565b6000819050919050565b6114c28361148d565b6114d66114ce826114af565b848454611431565b825550505050565b600090565b6114eb6114de565b6114f68184846114b9565b505050565b5b8181101561151a5761150f6000826114e3565b6001810190506114fc565b5050565b601f82111561155f57611530816113ff565b61153984611414565b81016020851015611548578190505b61155c61155485611414565b8301826114fb565b50505b505050565b600082821c905092915050565b600061158260001984600802611564565b1980831691505092915050565b600061159b8383611571565b9150826002028217905092915050565b6115b482610c36565b67ffffffffffffffff8111156115cd576115cc610f09565b5b6115d78254611115565b6115e282828561151e565b600060209050601f8311600181146116155760008415611603578287015190505b61160d858261158f565b865550611675565b601f198416611623866113ff565b60005b8281101561164b57848901518255600182019150602085019450602081019050611626565b868310156116685784890151611664601f891682611571565b8355505b6001600288020188555050505b505050505050565b60006060820190506116926000830186610dc8565b61169f6020830185610dd7565b6116ac6040830184610dc8565b949350505050565b7f4f6e6c79206973737565722063616e2063616e63656c00000000000000000000600082015250565b60006116ea601683610de6565b91506116f5826116b4565b602082019050919050565b60006020820190508181036000830152611719816116dd565b9050919050565b7f43616e6e6f742063616e63656c207061696420696e766f696365000000000000600082015250565b6000611756601a83610de6565b915061176182611720565b602082019050919050565b6000602082019050818103600083015261178581611749565b905091905056fea26469706673582212209fbcc678e977967a54b15cf4756e17adae37e54cf28da95f9626bf7eac1989d364736f6c63430008140033",
  "linkReferences": {},
  "deployedLinkReferences": {}
}